{"abi":[{"type":"constructor","inputs":[],"stateMutability":"nonpayable"},{"type":"function","name":"addPermission","inputs":[{"name":"permission","type":"address","internalType":"address"}],"outputs":[],"stateMutability":"nonpayable"},{"type":"function","name":"executeIntent","inputs":[{"name":"solver","type":"address","internalType":"address"},{"name":"intentId","type":"bytes32","internalType":"bytes32"},{"name":"payload","type":"bytes","internalType":"bytes"}],"outputs":[],"stateMutability":"nonpayable"},{"type":"function","name":"getIntent","inputs":[{"name":"intentId","type":"bytes32","internalType":"bytes32"}],"outputs":[{"name":"","type":"tuple","internalType":"struct IIntentProcessor.Intent","components":[{"name":"prompt","type":"bytes","internalType":"bytes"},{"name":"intentType","type":"bytes","internalType":"bytes"},{"name":"owner","type":"address","internalType":"address"},{"name":"validator","type":"address","internalType":"address"},{"name":"permissions","type":"uint32[]","internalType":"uint32[]"},{"name":"permissionsPayload","type":"bytes[]","internalType":"bytes[]"},{"name":"targetFields","type":"bytes[]","internalType":"bytes[]"},{"name":"targetFieldsState","type":"bytes[]","internalType":"bytes[]"},{"name":"premium","type":"uint256","internalType":"uint256"},{"name":"expiration","type":"uint256","internalType":"uint256"}]}],"stateMutability":"view"},{"type":"function","name":"getUserIntentByIndex","inputs":[{"name":"user","type":"address","internalType":"address"},{"name":"index","type":"uint256","internalType":"uint256"}],"outputs":[{"name":"","type":"bytes32","internalType":"bytes32"}],"stateMutability":"view"},{"type":"function","name":"intents","inputs":[{"name":"","type":"bytes32","internalType":"bytes32"}],"outputs":[{"name":"prompt","type":"bytes","internalType":"bytes"},{"name":"intentType","type":"bytes","internalType":"bytes"},{"name":"owner","type":"address","internalType":"address"},{"name":"validator","type":"address","internalType":"address"},{"name":"premium","type":"uint256","internalType":"uint256"},{"name":"expiration","type":"uint256","internalType":"uint256"}],"stateMutability":"view"},{"type":"function","name":"knownPermissions","inputs":[{"name":"","type":"uint32","internalType":"uint32"}],"outputs":[{"name":"","type":"address","internalType":"address"}],"stateMutability":"view"},{"type":"function","name":"permissionCount","inputs":[],"outputs":[{"name":"","type":"uint32","internalType":"uint32"}],"stateMutability":"view"},{"type":"function","name":"placeIntent","inputs":[{"name":"intent","type":"tuple","internalType":"struct IIntentProcessor.Intent","components":[{"name":"prompt","type":"bytes","internalType":"bytes"},{"name":"intentType","type":"bytes","internalType":"bytes"},{"name":"owner","type":"address","internalType":"address"},{"name":"validator","type":"address","internalType":"address"},{"name":"permissions","type":"uint32[]","internalType":"uint32[]"},{"name":"permissionsPayload","type":"bytes[]","internalType":"bytes[]"},{"name":"targetFields","type":"bytes[]","internalType":"bytes[]"},{"name":"targetFieldsState","type":"bytes[]","internalType":"bytes[]"},{"name":"premium","type":"uint256","internalType":"uint256"},{"name":"expiration","type":"uint256","internalType":"uint256"}]}],"outputs":[{"name":"","type":"bytes32","internalType":"bytes32"}],"stateMutability":"payable"},{"type":"function","name":"previewIntent","inputs":[{"name":"solver","type":"address","internalType":"address"},{"name":"intentId","type":"bytes32","internalType":"bytes32"},{"name":"payload","type":"bytes","internalType":"bytes"}],"outputs":[{"name":"","type":"bool","internalType":"bool"}],"stateMutability":"view"},{"type":"function","name":"removePermission","inputs":[{"name":"permissionIndex","type":"uint32","internalType":"uint32"}],"outputs":[],"stateMutability":"nonpayable"},{"type":"function","name":"userIntentCounts","inputs":[{"name":"","type":"address","internalType":"address"}],"outputs":[{"name":"","type":"uint256","internalType":"uint256"}],"stateMutability":"view"},{"type":"function","name":"withdrawPremium","inputs":[],"outputs":[],"stateMutability":"nonpayable"},{"type":"event","name":"IntentExecuted","inputs":[{"name":"solver","type":"address","indexed":true,"internalType":"address"},{"name":"intentId","type":"bytes32","indexed":true,"internalType":"bytes32"}],"anonymous":false},{"type":"event","name":"IntentPlaced","inputs":[{"name":"intentId","type":"bytes32","indexed":true,"internalType":"bytes32"},{"name":"creator","type":"address","indexed":true,"internalType":"address"}],"anonymous":false},{"type":"error","name":"AddressInsufficientBalance","inputs":[{"name":"account","type":"address","internalType":"address"}]},{"type":"error","name":"FailedInnerCall","inputs":[]}],"bytecode":{"object":"0x60806040526003805463ffffffff1916905534801561001c575f80fd5b50612d838061002a5f395ff3fe6080604052600436106100c3575f3560e01c80639dee15a811610071578063c63bd02d1161004c578063c63bd02d1461025d578063ef17675e1461028e578063f13c46aa146102a1575f80fd5b80639dee15a81461019d578063a230f303146101c8578063bea01a7a146101f7575f80fd5b80634d0a5dbd116100a15780634d0a5dbd146101395780636709c18b146101585780639021578a1461016c575f80fd5b80630648cac3146100c75780631fd951ae146100e85780634a229fb514610107575b5f80fd5b3480156100d2575f80fd5b506100e66100e13660046119eb565b6102cd565b005b3480156100f3575f80fd5b506100e6610102366004611a3e565b61039e565b348015610112575f80fd5b50610126610121366004611ac0565b610755565b6040519081526020015b60405180910390f35b348015610144575f80fd5b506100e6610153366004611aea565b61082a565b348015610163575f80fd5b506100e661095d565b348015610177575f80fd5b5061018b610186366004611b05565b6109ef565b60405161013096959493929190611b87565b3480156101a8575f80fd5b506101266101b7366004611aea565b60056020525f908152604090205481565b3480156101d3575f80fd5b506101e76101e2366004611a3e565b610b4a565b6040519015158152602001610130565b348015610202575f80fd5b506102386102113660046119eb565b60026020525f908152604090205473ffffffffffffffffffffffffffffffffffffffff1681565b60405173ffffffffffffffffffffffffffffffffffffffff9091168152602001610130565b348015610268575f80fd5b506003546102799063ffffffff1681565b60405163ffffffff9091168152602001610130565b61012661029c366004611be7565b610c6e565b3480156102ac575f80fd5b506102c06102bb366004611b05565b610f9e565b6040516101309190611cd5565b63ffffffff81165f9081526002602052604090205473ffffffffffffffffffffffffffffffffffffffff16610363576040517f08c379a000000000000000000000000000000000000000000000000000000000815260206004820152601460248201527f5065726d697373696f6e206e6f74206b6e6f776e00000000000000000000000060448201526064015b60405180910390fd5b63ffffffff165f90815260026020526040902080547fffffffffffffffffffffffff0000000000000000000000000000000000000000169055565b5f83815260208190526040902060098101544310610418576040517f08c379a000000000000000000000000000000000000000000000000000000000815260206004820152600e60248201527f496e74656e742065787069726564000000000000000000000000000000000000604482015260640161035a565b61056d8160040180548060200260200160405190810160405280929190818152602001828054801561049257602002820191905f5260205f20905f905b82829054906101000a900463ffffffff1663ffffffff16815260200190600401906020826003010492830192600103820291508084116104555790505b505050505082600501805480602002602001604051908101604052809291908181526020015f905b82821015610562578382905f5260205f200180546104d790611e14565b80601f016020809104026020016040519081016040528092919081815260200182805461050390611e14565b801561054e5780601f106105255761010080835404028352916020019161054e565b820191905f5260205f20905b81548152906001019060200180831161053157829003601f168201915b5050505050815260200190600101906104ba565b5050505060016114a2565b61057a848287868661176f565b6106ce816004018054806020026020016040519081016040528092919081815260200182805480156105f457602002820191905f5260205f20905f905b82829054906101000a900463ffffffff1663ffffffff16815260200190600401906020826003010492830192600103820291508084116105b75790505b505050505082600501805480602002602001604051908101604052809291908181526020015f905b828210156106c4578382905f5260205f2001805461063990611e14565b80601f016020809104026020016040519081016040528092919081815260200182805461066590611e14565b80156106b05780601f10610687576101008083540402835291602001916106b0565b820191905f5260205f20905b81548152906001019060200180831161069357829003601f168201915b50505050508152602001906001019061061c565b505050505f6114a2565b600881015473ffffffffffffffffffffffffffffffffffffffff86165f9081526001602052604081208054909190610707908490611e92565b9091555050604051849073ffffffffffffffffffffffffffffffffffffffff8716907f3f85d0bd46ef72eb453028719ddfd06c553d29dd8e2c95646f6462c6651f6cde905f90a35050505050565b73ffffffffffffffffffffffffffffffffffffffff82165f9081526005602052604081205482106107e2576040517f08c379a000000000000000000000000000000000000000000000000000000000815260206004820152601360248201527f496e646578206f7574206f6620626f756e647300000000000000000000000000604482015260640161035a565b73ffffffffffffffffffffffffffffffffffffffff83165f90815260046020526040902080548390811061081857610818611ea5565b905f5260205f20015490505b92915050565b6003545f906108409063ffffffff166001611ed2565b63ffffffff81165f9081526002602052604090205490915073ffffffffffffffffffffffffffffffffffffffff16156108d5576040517f08c379a000000000000000000000000000000000000000000000000000000000815260206004820152601860248201527f5065726d697373696f6e20736c6f74206f636375706965640000000000000000604482015260640161035a565b63ffffffff8181165f90815260026020526040812080547fffffffffffffffffffffffff00000000000000000000000000000000000000001673ffffffffffffffffffffffffffffffffffffffff861617905560038054909216919061093a83611ef6565b91906101000a81548163ffffffff021916908363ffffffff160217905550505050565b335f90815260016020526040902054806109d3576040517f08c379a000000000000000000000000000000000000000000000000000000000815260206004820152601660248201527f4e6f207072656d69756d20746f20776974686472617700000000000000000000604482015260640161035a565b335f818152600160205260408120556109ec9082611903565b50565b5f60208190529081526040902080548190610a0990611e14565b80601f0160208091040260200160405190810160405280929190818152602001828054610a3590611e14565b8015610a805780601f10610a5757610100808354040283529160200191610a80565b820191905f5260205f20905b815481529060010190602001808311610a6357829003601f168201915b505050505090806001018054610a9590611e14565b80601f0160208091040260200160405190810160405280929190818152602001828054610ac190611e14565b8015610b0c5780601f10610ae357610100808354040283529160200191610b0c565b820191905f5260205f20905b815481529060010190602001808311610aef57829003601f168201915b50505050600283015460038401546008850154600990950154939473ffffffffffffffffffffffffffffffffffffffff928316949290911692509086565b5f83815260208190526040812060098101544310610bc4576040517f08c379a000000000000000000000000000000000000000000000000000000000815260206004820152600e60248201527f496e74656e742065787069726564000000000000000000000000000000000000604482015260640161035a565b60038101546040517f8a56b46300000000000000000000000000000000000000000000000000000000815273ffffffffffffffffffffffffffffffffffffffff909116908190638a56b46390610c249085908b908a908a906004016122d8565b602060405180830381865afa158015610c3f573d5f803e3d5ffd5b505050506040513d601f19601f82011682018060405250810190610c639190612319565b979650505050505050565b5f4382610120013511610cdd576040517f08c379a000000000000000000000000000000000000000000000000000000000815260206004820181905260248201527f45787069726174696f6e206d75737420626520696e2074686520667574757265604482015260640161035a565b8161010001353414610d71576040517f08c379a000000000000000000000000000000000000000000000000000000000815260206004820152602860248201527f53656e742076616c7565206d757374206d617463682074686520696e74656e7460448201527f207072656d69756d000000000000000000000000000000000000000000000000606482015260840161035a565b610d7e60a0830183612338565b9050610d8d6080840184612338565b905014610e1c576040517f08c379a000000000000000000000000000000000000000000000000000000000815260206004820152602660248201527f5065726d697373696f6e7320636f756e7420616e64207061796c6f6164206d6960448201527f736d617463680000000000000000000000000000000000000000000000000000606482015260840161035a565b610e2960e0830183612338565b9050610e3860c0840184612338565b905014610ec7576040517f08c379a000000000000000000000000000000000000000000000000000000000815260206004820152603560248201527f546172676574206669656c647320616e6420746172676574206669656c64732060448201527f737461746520636f756e7473206d69736d617463680000000000000000000000606482015260840161035a565b5f338343604051602001610edd9392919061250f565b604080517fffffffffffffffffffffffffffffffffffffffffffffffffffffffffffffffe081840301815291815281516020928301205f8181529283905291209091508390610f2c8282612b2a565b5050335f81815260046020908152604080832080546001810182559084528284200185905592825260059052908120805491610f6783612c96565b9091555050604051339082907fdc4d0565c3f76dedc3d006f797ee30e64ca418971c3c20734144001f57760c88905f90a392915050565b61101c60405180610140016040528060608152602001606081526020015f73ffffffffffffffffffffffffffffffffffffffff1681526020015f73ffffffffffffffffffffffffffffffffffffffff168152602001606081526020016060815260200160608152602001606081526020015f81526020015f81525090565b5f82815260208190526040908190208151610140810190925280548290829061104490611e14565b80601f016020809104026020016040519081016040528092919081815260200182805461107090611e14565b80156110bb5780601f10611092576101008083540402835291602001916110bb565b820191905f5260205f20905b81548152906001019060200180831161109e57829003601f168201915b505050505081526020016001820180546110d490611e14565b80601f016020809104026020016040519081016040528092919081815260200182805461110090611e14565b801561114b5780601f106111225761010080835404028352916020019161114b565b820191905f5260205f20905b81548152906001019060200180831161112e57829003601f168201915b5050509183525050600282015473ffffffffffffffffffffffffffffffffffffffff9081166020808401919091526003840154909116604080840191909152600484018054825181850281018501909352808352606090940193919290919083018282801561120257602002820191905f5260205f20905f905b82829054906101000a900463ffffffff1663ffffffff16815260200190600401906020826003010492830192600103820291508084116111c55790505b5050505050815260200160058201805480602002602001604051908101604052809291908181526020015f905b828210156112d7578382905f5260205f2001805461124c90611e14565b80601f016020809104026020016040519081016040528092919081815260200182805461127890611e14565b80156112c35780601f1061129a576101008083540402835291602001916112c3565b820191905f5260205f20905b8154815290600101906020018083116112a657829003601f168201915b50505050508152602001906001019061122f565b50505050815260200160068201805480602002602001604051908101604052809291908181526020015f905b828210156113ab578382905f5260205f2001805461132090611e14565b80601f016020809104026020016040519081016040528092919081815260200182805461134c90611e14565b80156113975780601f1061136e57610100808354040283529160200191611397565b820191905f5260205f20905b81548152906001019060200180831161137a57829003601f168201915b505050505081526020019060010190611303565b50505050815260200160078201805480602002602001604051908101604052809291908181526020015f905b8282101561147f578382905f5260205f200180546113f490611e14565b80601f016020809104026020016040519081016040528092919081815260200182805461142090611e14565b801561146b5780601f106114425761010080835404028352916020019161146b565b820191905f5260205f20905b81548152906001019060200180831161144e57829003601f168201915b5050505050815260200190600101906113d7565b505050508152602001600882015481526020016009820154815250509050919050565b5f5b83518163ffffffff161015611769575f60025f868463ffffffff16815181106114cf576114cf611ea5565b60209081029190910181015163ffffffff1682528101919091526040015f205473ffffffffffffffffffffffffffffffffffffffff1690508015611756575f836115cd576358edef4c60e01b858463ffffffff168151811061153357611533611ea5565b602002602001015160405160240161154b9190612ccd565b604080517fffffffffffffffffffffffffffffffffffffffffffffffffffffffffffffffe08184030181529190526020810180517bffffffffffffffffffffffffffffffffffffffffffffffffffffffff167fffffffff0000000000000000000000000000000000000000000000000000000090931692909217909152611683565b63ba65811160e01b858463ffffffff16815181106115ed576115ed611ea5565b60200260200101516040516024016116059190612ccd565b604080517fffffffffffffffffffffffffffffffffffffffffffffffffffffffffffffffe08184030181529190526020810180517bffffffffffffffffffffffffffffffffffffffffffffffffffffffff167fffffffff00000000000000000000000000000000000000000000000000000000909316929092179091525b90505f8273ffffffffffffffffffffffffffffffffffffffff16826040516116ab9190612cdf565b5f60405180830381855af49150503d805f81146116e3576040519150601f19603f3d011682016040523d82523d5f602084013e6116e8565b606091505b5050905080611753576040517f08c379a000000000000000000000000000000000000000000000000000000000815260206004820152601c60248201527f5065726d697373696f6e2070726f63657373696e67206661696c656400000000604482015260640161035a565b50505b508061176181611ef6565b9150506114a4565b50505050565b60038401546040517f8a56b46300000000000000000000000000000000000000000000000000000000815273ffffffffffffffffffffffffffffffffffffffff909116908190638a56b463906117cf9088908890889088906004016122d8565b602060405180830381865afa1580156117ea573d5f803e3d5ffd5b505050506040513d601f19601f8201168201806040525081019061180e9190612319565b611874576040517f08c379a000000000000000000000000000000000000000000000000000000000815260206004820152601560248201527f496e74656e742070726576696577206661696c65640000000000000000000000604482015260640161035a565b6040517ff4ebcdf900000000000000000000000000000000000000000000000000000000815273ffffffffffffffffffffffffffffffffffffffff82169063f4ebcdf9906118ce9089908990899089908990600401612cfa565b5f604051808303815f87803b1580156118e5575f80fd5b505af11580156118f7573d5f803e3d5ffd5b50505050505050505050565b8047101561193f576040517fcd78605900000000000000000000000000000000000000000000000000000000815230600482015260240161035a565b5f8273ffffffffffffffffffffffffffffffffffffffff16826040515f6040518083038185875af1925050503d805f8114611995576040519150601f19603f3d011682016040523d82523d5f602084013e61199a565b606091505b50509050806119d5576040517f1425ea4200000000000000000000000000000000000000000000000000000000815260040160405180910390fd5b505050565b63ffffffff811681146109ec575f80fd5b5f602082840312156119fb575f80fd5b8135611a06816119da565b9392505050565b73ffffffffffffffffffffffffffffffffffffffff811681146109ec575f80fd5b8035611a3981611a0d565b919050565b5f805f8060608587031215611a51575f80fd5b8435611a5c81611a0d565b935060208501359250604085013567ffffffffffffffff80821115611a7f575f80fd5b818701915087601f830112611a92575f80fd5b813581811115611aa0575f80fd5b886020828501011115611ab1575f80fd5b95989497505060200194505050565b5f8060408385031215611ad1575f80fd5b8235611adc81611a0d565b946020939093013593505050565b5f60208284031215611afa575f80fd5b8135611a0681611a0d565b5f60208284031215611b15575f80fd5b5035919050565b5f5b83811015611b36578181015183820152602001611b1e565b50505f910152565b5f8151808452611b55816020860160208601611b1c565b601f017fffffffffffffffffffffffffffffffffffffffffffffffffffffffffffffffe0169290920160200192915050565b60c081525f611b9960c0830189611b3e565b8281036020840152611bab8189611b3e565b73ffffffffffffffffffffffffffffffffffffffff978816604085015295909616606083015250608081019290925260a0909101529392505050565b5f60208284031215611bf7575f80fd5b813567ffffffffffffffff811115611c0d575f80fd5b82016101408185031215611a06575f80fd5b5f815180845260208085019450602084015f5b83811015611c5457815163ffffffff1687529582019590820190600101611c32565b509495945050505050565b5f8282518085526020808601955060208260051b840101602086015f5b84811015611cc8577fffffffffffffffffffffffffffffffffffffffffffffffffffffffffffffffe0868403018952611cb6838351611b3e565b98840198925090830190600101611c7c565b5090979650505050505050565b602081525f8251610140806020850152611cf3610160850183611b3e565b915060208501517fffffffffffffffffffffffffffffffffffffffffffffffffffffffffffffffe080868503016040870152611d2f8483611b3e565b935060408701519150611d5a606087018373ffffffffffffffffffffffffffffffffffffffff169052565b606087015173ffffffffffffffffffffffffffffffffffffffff81166080880152915060808701519150808685030160a0870152611d988483611c1f565b935060a08701519150808685030160c0870152611db58483611c5f565b935060c08701519150808685030160e0870152611dd28483611c5f565b935060e08701519150610100818786030181880152611df18584611c5f565b908801516101208881019190915290970151929095019190915250929392505050565b600181811c90821680611e2857607f821691505b602082108103611e5f577f4e487b71000000000000000000000000000000000000000000000000000000005f52602260045260245ffd5b50919050565b7f4e487b71000000000000000000000000000000000000000000000000000000005f52601160045260245ffd5b8082018082111561082457610824611e65565b7f4e487b71000000000000000000000000000000000000000000000000000000005f52603260045260245ffd5b63ffffffff818116838216019080821115611eef57611eef611e65565b5092915050565b5f63ffffffff808316818103611f0e57611f0e611e65565b6001019392505050565b5f8154611f2481611e14565b808552602060018381168015611f415760018114611f7957611fa4565b7fffffffffffffffffffffffffffffffffffffffffffffffffffffffffffffff008516838901528284151560051b8901019550611fa4565b865f52825f205f5b85811015611f9c5781548a8201860152908301908401611f81565b890184019650505b505050505092915050565b80548083525f8281526020808220940193909190825b8260078201101561203d57815463ffffffff8082168852602082811c821690890152604082811c821690890152606082811c821690890152608082811c82169089015260a082811c82169089015260c082811c9091169088015260e090811c9087015261010090950194600190910190600801611fc5565b9054908281101561205b5763ffffffff821686526020909501946001015b8281101561207b57602082901c63ffffffff168652602095909501946001015b8281101561209a5763ffffffff604083901c1686526020909501946001015b828110156120b95763ffffffff606083901c1686526020909501946001015b828110156120d85763ffffffff608083901c1686526020909501946001015b828110156120f75763ffffffff60a083901c1686526020909501946001015b828110156121165763ffffffff60c083901c1686526020909501946001015b8281101561212c5760e082901c86526020860195505b5093949350505050565b5f8282548085526020808601955060208260051b840101855f5260205f205f5b84811015611cc8577fffffffffffffffffffffffffffffffffffffffffffffffffffffffffffffffe086840301895261218f8383611f18565b98840198925060019182019101612156565b5f6101408084526121b481850184611f18565b905083810360208501526121cb8160018501611f18565b90506121ee600284015473ffffffffffffffffffffffffffffffffffffffff1690565b73ffffffffffffffffffffffffffffffffffffffff90811660408601526003840154166060850152838103608085015261222b8160048501611faf565b905083810360a08501526122428160058501612136565b905083810360c08501526122598160068501612136565b905083810360e08501526122708160078501612136565b60088401546101008601526009909301546101209094019390935250919050565b81835281816020850137505f602082840101525f60207fffffffffffffffffffffffffffffffffffffffffffffffffffffffffffffffe0601f840116840101905092915050565b606081525f6122ea60608301876121a1565b73ffffffffffffffffffffffffffffffffffffffff861660208401528281036040840152610c63818587612291565b5f60208284031215612329575f80fd5b81518015158114611a06575f80fd5b5f8083357fffffffffffffffffffffffffffffffffffffffffffffffffffffffffffffffe184360301811261236b575f80fd5b83018035915067ffffffffffffffff821115612385575f80fd5b6020019150600581901b360382131561239c575f80fd5b9250929050565b5f8083357fffffffffffffffffffffffffffffffffffffffffffffffffffffffffffffffe18436030181126123d6575f80fd5b830160208101925035905067ffffffffffffffff8111156123f5575f80fd5b80360382131561239c575f80fd5b5f8083357fffffffffffffffffffffffffffffffffffffffffffffffffffffffffffffffe1843603018112612436575f80fd5b830160208101925035905067ffffffffffffffff811115612455575f80fd5b8060051b360382131561239c575f80fd5b8183525f60208085019450825f5b85811015611c54578135612487816119da565b63ffffffff1687529582019590820190600101612474565b5f838385526020808601955060208560051b830101845f5b87811015611cc8577fffffffffffffffffffffffffffffffffffffffffffffffffffffffffffffffe08584030189526124f082886123a3565b6124fb858284612291565b9a86019a94505050908301906001016124b7565b73ffffffffffffffffffffffffffffffffffffffff84168152606060208201525f61253a84856123a3565b6101408060608601526125526101a086018385612291565b925061256160208801886123a3565b92507fffffffffffffffffffffffffffffffffffffffffffffffffffffffffffffffa080878603016080880152612599858584612291565b94506125a760408a01611a2e565b73ffffffffffffffffffffffffffffffffffffffff811660a089015293506125d160608a01611a2e565b73ffffffffffffffffffffffffffffffffffffffff811660c089015293506125fc60808a018a612403565b94509150808786030160e0880152612615858584612466565b945061262460a08a018a612403565b9450915061010081888703018189015261263f86868561249f565b955061264e60c08b018b612403565b955092506101208289880301818a015261266987878661249f565b965061267860e08c018c612403565b965093508289880301858a015261269087878661249f565b918b01356101608a01529099013561018088015250505050604090920192909252509092915050565b5f8083357fffffffffffffffffffffffffffffffffffffffffffffffffffffffffffffffe18436030181126126ec575f80fd5b83018035915067ffffffffffffffff821115612706575f80fd5b60200191503681900382131561239c575f80fd5b7f4e487b71000000000000000000000000000000000000000000000000000000005f52604160045260245ffd5b5b8181101561275b575f8155600101612748565b5050565b601f8211156119d557805f5260205f20601f840160051c810160208510156127845750805b612796601f850160051c830182612747565b5050505050565b67ffffffffffffffff8311156127b5576127b561271a565b6127c9836127c38354611e14565b8361275f565b5f601f841160018114612819575f85156127e35750838201355b7fffffffffffffffffffffffffffffffffffffffffffffffffffffffffffffffff600387901b1c1916600186901b178355612796565b5f838152602081207fffffffffffffffffffffffffffffffffffffffffffffffffffffffffffffffe08716915b828110156128665786850135825560209485019460019092019101612846565b50868210156128a1577fffffffffffffffffffffffffffffffffffffffffffffffffffffffffffffffff60f88860031b161c19848701351681555b505060018560011b0183555050505050565b5f813561082481611a0d565b680100000000000000008211156128d8576128d861271a565b8054828255808310156119d557815f5260205f206007840160031c8101601c8560021b168015612937577fffffffffffffffffffffffffffffffffffffffffffffffffffffffffffffffff8083018054828460200360031b1c16815550505b506127966007840160031c830182612747565b5f8135610824816119da565b67ffffffffffffffff83111561296e5761296e61271a565b61297883826128bf565b5f8181526020902082908460031c5f5b818110156129e0575f805b60088110156129d3576129c26129a88761294a565b63ffffffff908116600584901b90811b91901b1984161790565b602096909601959150600101612993565b5083820155600101612988565b507ffffffffffffffffffffffffffffffffffffffffffffffffffffffffffffffff88616808703818814612a3c575f805b82811015612a3657612a256129a88861294a565b602097909701969150600101612a11565b50848401555b5050505050505050565b68010000000000000000831115612a5f57612a5f61271a565b805483825580841015612ae4575f828152602090208481019082015b80821015612ae157612a8d8254611e14565b8015612ad557601f80821160018114612aa8575f8555612ad2565b5f85815260209020612ac483850160051c820160018301612747565b505f85815260208120818755555b50505b50600182019150612a7b565b50505b505f8181526020812083915b85811015612b2257612b0283866126b9565b612b0d81838661279d565b50506020929092019160019182019101612af0565b505050505050565b612b3482836126b9565b612b3f81838561279d565b5050612b4e60208301836126b9565b612b5c81836001860161279d565b5050612bb3612b6d604084016128b3565b6002830173ffffffffffffffffffffffffffffffffffffffff82167fffffffffffffffffffffffff00000000000000000000000000000000000000008254161781555050565b612c08612bc2606084016128b3565b6003830173ffffffffffffffffffffffffffffffffffffffff82167fffffffffffffffffffffffff00000000000000000000000000000000000000008254161781555050565b612c156080830183612338565b612c23818360048601612956565b5050612c3260a0830183612338565b612c40818360058601612a46565b5050612c4f60c0830183612338565b612c5d818360068601612a46565b5050612c6c60e0830183612338565b612c7a818360078601612a46565b5050610100820135600882015561012082013560098201555050565b5f7fffffffffffffffffffffffffffffffffffffffffffffffffffffffffffffffff8203612cc657612cc6611e65565b5060010190565b602081525f611a066020830184611b3e565b5f8251612cf0818460208701611b1c565b9190910192915050565b858152608060208201525f612d1260808301876121a1565b73ffffffffffffffffffffffffffffffffffffffff861660408401528281036060840152612d41818587612291565b9897505050505050505056fea2646970667358221220a99035e915f31b9e7ed7dbd6def09d227d72cbed4b28a378e2c3aa703366001764736f6c63430008180033","linkReferences":{}},"methodIdentifiers":{"addPermission(address)":"4d0a5dbd","executeIntent(address,bytes32,bytes)":"1fd951ae","getIntent(bytes32)":"f13c46aa","getUserIntentByIndex(address,uint256)":"4a229fb5","intents(bytes32)":"9021578a","knownPermissions(uint32)":"bea01a7a","permissionCount()":"c63bd02d","placeIntent((bytes,bytes,address,address,uint32[],bytes[],bytes[],bytes[],uint256,uint256))":"ef17675e","previewIntent(address,bytes32,bytes)":"a230f303","removePermission(uint32)":"0648cac3","userIntentCounts(address)":"9dee15a8","withdrawPremium()":"6709c18b"},"id":25}